{
  "_format": "hh-sol-artifact-1",
  "contractName": "AssetManagerV1",
  "sourceName": "contracts/AssetManagerV1.sol",
  "abi": [
    {
      "inputs": [
        {
          "internalType": "address",
          "name": "target",
          "type": "address"
        }
      ],
      "name": "AddressEmptyCode",
      "type": "error"
    },
    {
      "inputs": [
        {
          "internalType": "address",
          "name": "implementation",
          "type": "address"
        }
      ],
      "name": "ERC1967InvalidImplementation",
      "type": "error"
    },
    {
      "inputs": [],
      "name": "ERC1967NonPayable",
      "type": "error"
    },
    {
      "inputs": [],
      "name": "FailedCall",
      "type": "error"
    },
    {
      "inputs": [],
      "name": "InvalidInitialization",
      "type": "error"
    },
    {
      "inputs": [],
      "name": "NotInitializing",
      "type": "error"
    },
    {
      "inputs": [
        {
          "internalType": "address",
          "name": "owner",
          "type": "address"
        }
      ],
      "name": "OwnableInvalidOwner",
      "type": "error"
    },
    {
      "inputs": [
        {
          "internalType": "address",
          "name": "account",
          "type": "address"
        }
      ],
      "name": "OwnableUnauthorizedAccount",
      "type": "error"
    },
    {
      "inputs": [],
      "name": "ReentrancyGuardReentrantCall",
      "type": "error"
    },
    {
      "inputs": [],
      "name": "UUPSUnauthorizedCallContext",
      "type": "error"
    },
    {
      "inputs": [
        {
          "internalType": "bytes32",
          "name": "slot",
          "type": "bytes32"
        }
      ],
      "name": "UUPSUnsupportedProxiableUUID",
      "type": "error"
    },
    {
      "anonymous": false,
      "inputs": [
        {
          "indexed": true,
          "internalType": "address",
          "name": "user",
          "type": "address"
        },
        {
          "indexed": true,
          "internalType": "address",
          "name": "token",
          "type": "address"
        },
        {
          "indexed": false,
          "internalType": "uint256",
          "name": "cost",
          "type": "uint256"
        },
        {
          "indexed": false,
          "internalType": "string",
          "name": "order_id",
          "type": "string"
        },
        {
          "indexed": false,
          "internalType": "string",
          "name": "command",
          "type": "string"
        },
        {
          "indexed": false,
          "internalType": "string",
          "name": "extra_info",
          "type": "string"
        },
        {
          "indexed": false,
          "internalType": "uint256",
          "name": "timestamp",
          "type": "uint256"
        }
      ],
      "name": "Deposit",
      "type": "event"
    },
    {
      "anonymous": false,
      "inputs": [
        {
          "indexed": true,
          "internalType": "address",
          "name": "user",
          "type": "address"
        },
        {
          "indexed": false,
          "internalType": "uint256",
          "name": "amountIn",
          "type": "uint256"
        },
        {
          "indexed": false,
          "internalType": "uint256",
          "name": "timestamp",
          "type": "uint256"
        }
      ],
      "name": "DepositETH",
      "type": "event"
    },
    {
      "anonymous": false,
      "inputs": [
        {
          "indexed": false,
          "internalType": "uint64",
          "name": "version",
          "type": "uint64"
        }
      ],
      "name": "Initialized",
      "type": "event"
    },
    {
      "anonymous": false,
      "inputs": [
        {
          "indexed": true,
          "internalType": "address",
          "name": "previousOwner",
          "type": "address"
        },
        {
          "indexed": true,
          "internalType": "address",
          "name": "newOwner",
          "type": "address"
        }
      ],
      "name": "OwnershipTransferred",
      "type": "event"
    },
    {
      "anonymous": false,
      "inputs": [
        {
          "indexed": true,
          "internalType": "address",
          "name": "implementation",
          "type": "address"
        }
      ],
      "name": "Upgraded",
      "type": "event"
    },
    {
      "anonymous": false,
      "inputs": [
        {
          "indexed": true,
          "internalType": "address",
          "name": "admin",
          "type": "address"
        },
        {
          "indexed": true,
          "internalType": "address",
          "name": "token",
          "type": "address"
        },
        {
          "indexed": false,
          "internalType": "address",
          "name": "receiver",
          "type": "address"
        },
        {
          "indexed": false,
          "internalType": "uint256",
          "name": "order_id",
          "type": "uint256"
        },
        {
          "indexed": false,
          "internalType": "uint256",
          "name": "cost",
          "type": "uint256"
        },
        {
          "indexed": false,
          "internalType": "uint256",
          "name": "timestamp",
          "type": "uint256"
        }
      ],
      "name": "Withdraw2",
      "type": "event"
    },
    {
      "inputs": [],
      "name": "UPGRADE_INTERFACE_VERSION",
      "outputs": [
        {
          "internalType": "string",
          "name": "",
          "type": "string"
        }
      ],
      "stateMutability": "view",
      "type": "function"
    },
    {
      "inputs": [
        {
          "internalType": "address",
          "name": "_minter",
          "type": "address"
        }
      ],
      "name": "addMinter",
      "outputs": [],
      "stateMutability": "nonpayable",
      "type": "function"
    },
    {
      "inputs": [],
      "name": "coin_receiver",
      "outputs": [
        {
          "internalType": "address",
          "name": "",
          "type": "address"
        }
      ],
      "stateMutability": "view",
      "type": "function"
    },
    {
      "inputs": [
        {
          "internalType": "string",
          "name": "order_id",
          "type": "string"
        },
        {
          "internalType": "string",
          "name": "command",
          "type": "string"
        },
        {
          "internalType": "string",
          "name": "extra_info",
          "type": "string"
        },
        {
          "internalType": "address",
          "name": "token",
          "type": "address"
        },
        {
          "internalType": "uint256",
          "name": "amount",
          "type": "uint256"
        }
      ],
      "name": "deposit",
      "outputs": [],
      "stateMutability": "payable",
      "type": "function"
    },
    {
      "inputs": [],
      "name": "depositETH",
      "outputs": [],
      "stateMutability": "payable",
      "type": "function"
    },
    {
      "inputs": [
        {
          "internalType": "address",
          "name": "_coinReceiver",
          "type": "address"
        }
      ],
      "name": "initialize",
      "outputs": [],
      "stateMutability": "nonpayable",
      "type": "function"
    },
    {
      "inputs": [
        {
          "internalType": "address",
          "name": "_minter",
          "type": "address"
        }
      ],
      "name": "isMinter",
      "outputs": [
        {
          "internalType": "bool",
          "name": "",
          "type": "bool"
        }
      ],
      "stateMutability": "view",
      "type": "function"
    },
    {
      "inputs": [],
      "name": "isOwner",
      "outputs": [
        {
          "internalType": "bool",
          "name": "",
          "type": "bool"
        }
      ],
      "stateMutability": "view",
      "type": "function"
    },
    {
      "inputs": [
        {
          "internalType": "uint256",
          "name": "",
          "type": "uint256"
        }
      ],
      "name": "order_status",
      "outputs": [
        {
          "internalType": "bool",
          "name": "",
          "type": "bool"
        }
      ],
      "stateMutability": "view",
      "type": "function"
    },
    {
      "inputs": [],
      "name": "owner",
      "outputs": [
        {
          "internalType": "address",
          "name": "",
          "type": "address"
        }
      ],
      "stateMutability": "view",
      "type": "function"
    },
    {
      "inputs": [],
      "name": "proxiableUUID",
      "outputs": [
        {
          "internalType": "bytes32",
          "name": "",
          "type": "bytes32"
        }
      ],
      "stateMutability": "view",
      "type": "function"
    },
    {
      "inputs": [
        {
          "internalType": "address",
          "name": "",
          "type": "address"
        }
      ],
      "name": "proxyAdmins",
      "outputs": [
        {
          "internalType": "bool",
          "name": "",
          "type": "bool"
        }
      ],
      "stateMutability": "view",
      "type": "function"
    },
    {
      "inputs": [
        {
          "internalType": "address",
          "name": "_minter",
          "type": "address"
        }
      ],
      "name": "removeMinter",
      "outputs": [],
      "stateMutability": "nonpayable",
      "type": "function"
    },
    {
      "inputs": [],
      "name": "renounceOwnership",
      "outputs": [],
      "stateMutability": "nonpayable",
      "type": "function"
    },
    {
      "inputs": [
        {
          "internalType": "address",
          "name": "proxyAdmin_",
          "type": "address"
        },
        {
          "internalType": "bool",
          "name": "isEnable_",
          "type": "bool"
        }
      ],
      "name": "setProxyAdmin",
      "outputs": [],
      "stateMutability": "nonpayable",
      "type": "function"
    },
    {
      "inputs": [
        {
          "internalType": "address",
          "name": "newOwner",
          "type": "address"
        }
      ],
      "name": "transferOwnership",
      "outputs": [],
      "stateMutability": "nonpayable",
      "type": "function"
    },
    {
      "inputs": [
        {
          "internalType": "address",
          "name": "_coin_receiver",
          "type": "address"
        }
      ],
      "name": "updateCoinReceiver",
      "outputs": [],
      "stateMutability": "nonpayable",
      "type": "function"
    },
    {
      "inputs": [
        {
          "internalType": "address",
          "name": "newImplementation",
          "type": "address"
        },
        {
          "internalType": "bytes",
          "name": "data",
          "type": "bytes"
        }
      ],
      "name": "upgradeToAndCall",
      "outputs": [],
      "stateMutability": "payable",
      "type": "function"
    },
    {
      "inputs": [
        {
          "internalType": "uint256[]",
          "name": "order_ids",
          "type": "uint256[]"
        },
        {
          "internalType": "address[]",
          "name": "tokens",
          "type": "address[]"
        },
        {
          "internalType": "uint256[]",
          "name": "amounts",
          "type": "uint256[]"
        },
        {
          "internalType": "address[]",
          "name": "users",
          "type": "address[]"
        }
      ],
      "name": "withdraw2",
      "outputs": [],
      "stateMutability": "nonpayable",
      "type": "function"
    },
    {
      "inputs": [],
      "name": "withdrawETH",
      "outputs": [],
      "stateMutability": "nonpayable",
      "type": "function"
    },
    {
      "inputs": [
        {
          "internalType": "address",
          "name": "token",
          "type": "address"
        }
      ],
      "name": "withdrawToken",
      "outputs": [],
      "stateMutability": "nonpayable",
      "type": "function"
    },
    {
      "stateMutability": "payable",
      "type": "receive"
    }
  ],
  "bytecode": "0x60a06040523060805234801561001457600080fd5b5061001d610022565b6100d4565b7ff0c57e16840df040f15088dc2f81fe391c3923bec73e23a9662efc9c229c6a00805468010000000000000000900460ff16156100725760405163f92ee8a960e01b815260040160405180910390fd5b80546001600160401b03908116146100d15780546001600160401b0319166001600160401b0390811782556040519081527fc7f505b2f371ae2175ee4913f4499e1f2633a7b5936321eed1cdaeb6115181d29060200160405180910390a15b50565b608051611caa6100fd6000396000818161106e0152818161109701526112bd0152611caa6000f3fe60806040526004361061012e5760003560e01c806389476069116100ab578063aa271e1a1161006f578063aa271e1a14610331578063ad3cb1cc1461036a578063c4d66de8146103a8578063e086e5ec146103c8578063f2fde38b146103dd578063f6326fb3146103fd57600080fd5b806389476069146102975780638da5cb5b146102b75780638f32d59b146102cc57806391e1685f146102e1578063983b2d561461031157600080fd5b806352d1902d116100f257806352d1902d146101c2578063584bc3b4146101ea57806370fc5ffa1461020a578063715018a614610242578063866df5271461025757600080fd5b80631deff8f71461013a5780633092afd51461015c57806337f7c9271461017c578063453427d71461019c5780634f1ef286146101af57600080fd5b3661013557005b600080fd5b34801561014657600080fd5b5061015a61015536600461179d565b610405565b005b34801561016857600080fd5b5061015a61017736600461179d565b61042f565b34801561018857600080fd5b5061015a610197366004611804565b610458565b61015a6101aa36600461190a565b610929565b61015a6101bd3660046119d4565b610aa8565b3480156101ce57600080fd5b506101d7610ac7565b6040519081526020015b60405180910390f35b3480156101f657600080fd5b5061015a610205366004611aa4565b610ae4565b34801561021657600080fd5b5060005461022a906001600160a01b031681565b6040516001600160a01b0390911681526020016101e1565b34801561024e57600080fd5b5061015a610b17565b34801561026357600080fd5b5061028761027236600461179d565b60046020526000908152604090205460ff1681565b60405190151581526020016101e1565b3480156102a357600080fd5b5061015a6102b236600461179d565b610b2b565b3480156102c357600080fd5b5061022a610bb5565b3480156102d857600080fd5b50610287610be3565b3480156102ed57600080fd5b506102876102fc366004611adb565b60036020526000908152604090205460ff1681565b34801561031d57600080fd5b5061015a61032c36600461179d565b610c06565b34801561033d57600080fd5b5061028761034c36600461179d565b6001600160a01b031660009081526002602052604090205460ff1690565b34801561037657600080fd5b5061039b604051806040016040528060058152602001640352e302e360dc1b81525081565b6040516101e19190611b18565b3480156103b457600080fd5b5061015a6103c336600461179d565b610c32565b3480156103d457600080fd5b5061015a610d65565b3480156103e957600080fd5b5061015a6103f836600461179d565b610d77565b61015a610db2565b61040d610e6f565b600080546001600160a01b0319166001600160a01b0392909216919091179055565b610437610e6f565b6001600160a01b03166000908152600260205260409020805460ff19169055565b3360009081526002602052604090205460ff168061048557503361047a610bb5565b6001600160a01b0316145b6104e05760405162461bcd60e51b815260206004820152602160248201527f4f776e61626c653a2063616c6c6572206973206e6f7420746865206d696e74656044820152603960f91b60648201526084015b60405180910390fd5b6104e8610ea1565b8685811480156104f757508381145b6105345760405162461bcd60e51b815260206004820152600e60248201526d1b195b99dd1a081a5b9d985b1a5960921b60448201526064016104d7565b60005b8181101561090657600360008b8b8481811061055557610555611b4b565b602090810292909201358352508101919091526040016000205460ff166108fe57600088888381811061058a5761058a611b4b565b905060200201602081019061059f919061179d565b6001600160a01b031614610724578585828181106105bf576105bf611b4b565b905060200201358888838181106105d8576105d8611b4b565b90506020020160208101906105ed919061179d565b6040516370a0823160e01b81523060048201526001600160a01b0391909116906370a0823190602401602060405180830381865afa158015610633573d6000803e3d6000fd5b505050506040513d601f19601f820116820180604052508101906106579190611b61565b10156106a55760405162461bcd60e51b815260206004820152601e60248201527f41737365744d616e616765723a206173736574206e6f7420656e6f756768000060448201526064016104d7565b61071f8484838181106106ba576106ba611b4b565b90506020020160208101906106cf919061179d565b8787848181106106e1576106e1611b4b565b905060200201358a8a858181106106fa576106fa611b4b565b905060200201602081019061070f919061179d565b6001600160a01b03169190610ed9565b6107d4565b85858281811061073657610736611b4b565b9050602002013547101561078c5760405162461bcd60e51b815260206004820152601e60248201527f41737365744d616e616765723a206173736574206e6f7420656e6f756768000060448201526064016104d7565b6107d48484838181106107a1576107a1611b4b565b90506020020160208101906107b6919061179d565b8787848181106107c8576107c8611b4b565b90506020020135610f41565b6001600360008c8c858181106107ec576107ec611b4b565b90506020020135815260200190815260200160002060006101000a81548160ff02191690831515021790555087878281811061082a5761082a611b4b565b905060200201602081019061083f919061179d565b6001600160a01b0316307f80cb16ccbe874a7c9dac40495fa159bb51ff63f9bc404b86616c9b576782984586868581811061087c5761087c611b4b565b9050602002016020810190610891919061179d565b8d8d868181106108a3576108a3611b4b565b905060200201358a8a878181106108bc576108bc611b4b565b90506020020135426040516108f594939291906001600160a01b0394909416845260208401929092526040830152606082015260800190565b60405180910390a35b600101610537565b505061091f6001600080516020611c5583398151915255565b5050505050505050565b610931610ea1565b6000546001600160a01b03166109955760405162461bcd60e51b815260206004820152602360248201527f41737365744d616e616765723a20636f696e5f7265636569766572206e6f74206044820152621cd95d60ea1b60648201526084016104d7565b6001600160a01b038216610a1c5780341015610a015760405162461bcd60e51b815260206004820152602560248201527f41737365744d616e616765723a2020696e73756666696369656e74206d73672e60448201526476616c756560d81b60648201526084016104d7565b600054610a17906001600160a01b031682610f41565b610a38565b600054610a38906001600160a01b038481169133911684611025565b816001600160a01b0316336001600160a01b03167f411a67d5c71b4fd427b72c730c924ca5f447fc6a6cdcc91f92bb09e23c0001c2838b8b8b8b8b8b42604051610a89989796959493929190611ba3565b60405180910390a361091f6001600080516020611c5583398151915255565b610ab0611063565b610ab982611108565b610ac382826111f5565b5050565b6000610ad16112b2565b50600080516020611c3583398151915290565b610aec610e6f565b6001600160a01b03919091166000908152600460205260409020805460ff1916911515919091179055565b610b1f610e6f565b610b2960006112fb565b565b610b33610e6f565b6040516370a0823160e01b8152306004820152610bb29033906001600160a01b038416906370a0823190602401602060405180830381865afa158015610b7d573d6000803e3d6000fd5b505050506040513d601f19601f82011682018060405250810190610ba19190611b61565b6001600160a01b0384169190610ed9565b50565b7f9016d09d72d40fdae2fd8ceac6b6234c7706214fd39c1cd1e609a0528c199300546001600160a01b031690565b6000610bed610bb5565b6001600160a01b0316336001600160a01b031614905090565b610c0e610e6f565b6001600160a01b03166000908152600260205260409020805460ff19166001179055565b7ff0c57e16840df040f15088dc2f81fe391c3923bec73e23a9662efc9c229c6a008054600160401b810460ff16159067ffffffffffffffff16600081158015610c785750825b905060008267ffffffffffffffff166001148015610c955750303b155b905081158015610ca3575080155b15610cc15760405163f92ee8a960e01b815260040160405180910390fd5b845467ffffffffffffffff191660011785558315610ceb57845460ff60401b1916600160401b1785555b600080546001600160a01b0319166001600160a01b038816179055610d0f3361136c565b610d1761137d565b8315610d5d57845460ff60401b19168555604051600181527fc7f505b2f371ae2175ee4913f4499e1f2633a7b5936321eed1cdaeb6115181d29060200160405180910390a15b505050505050565b610d6d610e6f565b610b293347610f41565b610d7f610e6f565b6001600160a01b038116610da957604051631e4fbdf760e01b8152600060048201526024016104d7565b610bb2816112fb565b610dba610ea1565b60003411610e1e5760405162461bcd60e51b815260206004820152602b60248201527f41737365744d616e616765723a20616d6f756e74206d7573742062652067726560448201526a061746572207468616e20360ac1b60648201526084016104d7565b6040805134815242602082015233917f57e8e547a3ef8d890c570ca885b0a8c441be3070e36b7ad4c7d6b9d9316ff2ce910160405180910390a2610b296001600080516020611c5583398151915255565b33610e78610bb5565b6001600160a01b031614610b295760405163118cdaa760e01b81523360048201526024016104d7565b600080516020611c55833981519152805460011901610ed357604051633ee5aeb560e01b815260040160405180910390fd5b60029055565b6040516001600160a01b038316602482015260448101829052610f3c90849063a9059cbb60e01b906064015b60408051601f198184030181529190526020810180516001600160e01b03166001600160e01b03199093169290921790915261138d565b505050565b604080516000808252602082019092526001600160a01b038416908390604051610f6b9190611bfb565b60006040518083038185875af1925050503d8060008114610fa8576040519150601f19603f3d011682016040523d82523d6000602084013e610fad565b606091505b5050905080610f3c5760405162461bcd60e51b815260206004820152602a60248201527f41737365744d616e61676572205472616e736665723a204554485f5452414e5360448201526911915497d1905253115160b21b60648201526084016104d7565b6001600080516020611c5583398151915255565b6040516001600160a01b038085166024830152831660448201526064810182905261105d9085906323b872dd60e01b90608401610f05565b50505050565b306001600160a01b037f00000000000000000000000000000000000000000000000000000000000000001614806110ea57507f00000000000000000000000000000000000000000000000000000000000000006001600160a01b03166110de600080516020611c35833981519152546001600160a01b031690565b6001600160a01b031614155b15610b295760405163703e46dd60e11b815260040160405180910390fd5b3360009081526004602052604090205460ff168061113e5750611129610bb5565b6001600160a01b0316336001600160a01b0316145b61117e5760405162461bcd60e51b815260206004820152601160248201527014195c9b5a5cdcda5bdb8819195b9a5959607a1b60448201526064016104d7565b6001600160a01b03811630148061119c57506001600160a01b038116155b806111af57506001600160a01b0381163b155b15610bb25760405162461bcd60e51b815260206004820152601660248201527524b73b30b634b21024b6b83632b6b2b73a30ba34b7b760511b60448201526064016104d7565b816001600160a01b03166352d1902d6040518163ffffffff1660e01b8152600401602060405180830381865afa92505050801561124f575060408051601f3d908101601f1916820190925261124c91810190611b61565b60015b61127757604051634c9c8ce360e01b81526001600160a01b03831660048201526024016104d7565b600080516020611c3583398151915281146112a857604051632a87526960e21b8152600481018290526024016104d7565b610f3c8383611514565b306001600160a01b037f00000000000000000000000000000000000000000000000000000000000000001614610b295760405163703e46dd60e11b815260040160405180910390fd5b7f9016d09d72d40fdae2fd8ceac6b6234c7706214fd39c1cd1e609a0528c19930080546001600160a01b031981166001600160a01b03848116918217845560405192169182907f8be0079c531659141344cd1fd0a4f28419497f9722a3daafe3b4186f6b6457e090600090a3505050565b61137461156a565b610bb2816115b3565b61138561156a565b610b296115bb565b61139f826001600160a01b03166115c3565b6113eb5760405162461bcd60e51b815260206004820152601f60248201527f5361666545524332303a2063616c6c20746f206e6f6e2d636f6e74726163740060448201526064016104d7565b600080836001600160a01b0316836040516114069190611bfb565b6000604051808303816000865af19150503d8060008114611443576040519150601f19603f3d011682016040523d82523d6000602084013e611448565b606091505b50915091508161149a5760405162461bcd60e51b815260206004820181905260248201527f5361666545524332303a206c6f772d6c6576656c2063616c6c206661696c656460448201526064016104d7565b80511561105d57808060200190518101906114b59190611c17565b61105d5760405162461bcd60e51b815260206004820152602a60248201527f5361666545524332303a204552433230206f7065726174696f6e20646964206e6044820152691bdd081cdd58d8d9595960b21b60648201526084016104d7565b61151d826115ff565b6040516001600160a01b038316907fbc7cd75a20ee27fd9adebab32041f755214dbc6bffa90cc0225b39da2e5c2d3b90600090a280511561156257610f3c8282611664565b610ac36116da565b7ff0c57e16840df040f15088dc2f81fe391c3923bec73e23a9662efc9c229c6a0054600160401b900460ff16610b2957604051631afcd79f60e31b815260040160405180910390fd5b610d7f61156a565b61101161156a565b6000813f7fc5d2460186f7233c927e7db2dcc703c0e500b653ca82273b7bfad8045d85a47081158015906115f75750808214155b949350505050565b806001600160a01b03163b60000361163557604051634c9c8ce360e01b81526001600160a01b03821660048201526024016104d7565b600080516020611c3583398151915280546001600160a01b0319166001600160a01b0392909216919091179055565b6060600080846001600160a01b0316846040516116819190611bfb565b600060405180830381855af49150503d80600081146116bc576040519150601f19603f3d011682016040523d82523d6000602084013e6116c1565b606091505b50915091506116d18583836116f9565b95945050505050565b3415610b295760405163b398979f60e01b815260040160405180910390fd5b60608261170e5761170982611758565b611751565b815115801561172557506001600160a01b0384163b155b1561174e57604051639996b31560e01b81526001600160a01b03851660048201526024016104d7565b50805b9392505050565b8051156117685780518082602001fd5b60405163d6bda27560e01b815260040160405180910390fd5b80356001600160a01b038116811461179857600080fd5b919050565b6000602082840312156117af57600080fd5b61175182611781565b60008083601f8401126117ca57600080fd5b50813567ffffffffffffffff8111156117e257600080fd5b6020830191508360208260051b85010111156117fd57600080fd5b9250929050565b6000806000806000806000806080898b03121561182057600080fd5b883567ffffffffffffffff8082111561183857600080fd5b6118448c838d016117b8565b909a50985060208b013591508082111561185d57600080fd5b6118698c838d016117b8565b909850965060408b013591508082111561188257600080fd5b61188e8c838d016117b8565b909650945060608b01359150808211156118a757600080fd5b506118b48b828c016117b8565b999c989b5096995094979396929594505050565b60008083601f8401126118da57600080fd5b50813567ffffffffffffffff8111156118f257600080fd5b6020830191508360208285010111156117fd57600080fd5b60008060008060008060008060a0898b03121561192657600080fd5b883567ffffffffffffffff8082111561193e57600080fd5b61194a8c838d016118c8565b909a50985060208b013591508082111561196357600080fd5b61196f8c838d016118c8565b909850965060408b013591508082111561198857600080fd5b506119958b828c016118c8565b90955093506119a8905060608a01611781565b9150608089013590509295985092959890939650565b634e487b7160e01b600052604160045260246000fd5b600080604083850312156119e757600080fd5b6119f083611781565b9150602083013567ffffffffffffffff80821115611a0d57600080fd5b818501915085601f830112611a2157600080fd5b813581811115611a3357611a336119be565b604051601f8201601f19908116603f01168101908382118183101715611a5b57611a5b6119be565b81604052828152886020848701011115611a7457600080fd5b8260208601602083013760006020848301015280955050505050509250929050565b8015158114610bb257600080fd5b60008060408385031215611ab757600080fd5b611ac083611781565b91506020830135611ad081611a96565b809150509250929050565b600060208284031215611aed57600080fd5b5035919050565b60005b83811015611b0f578181015183820152602001611af7565b50506000910152565b6020815260008251806020840152611b37816040850160208701611af4565b601f01601f19169190910160400192915050565b634e487b7160e01b600052603260045260246000fd5b600060208284031215611b7357600080fd5b5051919050565b81835281816020850137506000828201602090810191909152601f909101601f19169091010190565b88815260a060208201526000611bbd60a08301898b611b7a565b8281036040840152611bd081888a611b7a565b90508281036060840152611be5818688611b7a565b9150508260808301529998505050505050505050565b60008251611c0d818460208701611af4565b9190910192915050565b600060208284031215611c2957600080fd5b815161175181611a9656fe360894a13ba1a3210667c828492db98dca3e2076cc3735a920a3ca505d382bbc9b779b17422d0df92223018b32b4d1fa46e071723d6817e2486d003becc55f00a2646970667358221220197a2f90726d1661c996869e737dd863901e51f122327d77160e457a2c9cf39764736f6c63430008180033",
  "linkReferences": {},
  "deployedLinkReferences": {}
}