{
  "_format": "hh-sol-artifact-1",
  "contractName": "OriginFunSwapRouterV3",
  "sourceName": "contracts/OriginFunSwapRouterV3.sol",
  "abi": [
    {
      "inputs": [],
      "stateMutability": "nonpayable",
      "type": "constructor"
    },
    {
      "inputs": [
        {
          "internalType": "address",
          "name": "target",
          "type": "address"
        }
      ],
      "name": "AddressEmptyCode",
      "type": "error"
    },
    {
      "inputs": [
        {
          "internalType": "address",
          "name": "implementation",
          "type": "address"
        }
      ],
      "name": "ERC1967InvalidImplementation",
      "type": "error"
    },
    {
      "inputs": [],
      "name": "ERC1967NonPayable",
      "type": "error"
    },
    {
      "inputs": [],
      "name": "FailedCall",
      "type": "error"
    },
    {
      "inputs": [],
      "name": "InvalidInitialization",
      "type": "error"
    },
    {
      "inputs": [],
      "name": "NotInitializing",
      "type": "error"
    },
    {
      "inputs": [
        {
          "internalType": "address",
          "name": "owner",
          "type": "address"
        }
      ],
      "name": "OwnableInvalidOwner",
      "type": "error"
    },
    {
      "inputs": [
        {
          "internalType": "address",
          "name": "account",
          "type": "address"
        }
      ],
      "name": "OwnableUnauthorizedAccount",
      "type": "error"
    },
    {
      "inputs": [],
      "name": "ReentrancyGuardReentrantCall",
      "type": "error"
    },
    {
      "inputs": [
        {
          "internalType": "address",
          "name": "token",
          "type": "address"
        }
      ],
      "name": "SafeERC20FailedOperation",
      "type": "error"
    },
    {
      "inputs": [],
      "name": "UUPSUnauthorizedCallContext",
      "type": "error"
    },
    {
      "inputs": [
        {
          "internalType": "bytes32",
          "name": "slot",
          "type": "bytes32"
        }
      ],
      "name": "UUPSUnsupportedProxiableUUID",
      "type": "error"
    },
    {
      "anonymous": false,
      "inputs": [
        {
          "indexed": false,
          "internalType": "uint256",
          "name": "protocolFeeBps",
          "type": "uint256"
        },
        {
          "indexed": false,
          "internalType": "uint256",
          "name": "transactionFeeBps",
          "type": "uint256"
        }
      ],
      "name": "BuyFeesUpdated",
      "type": "event"
    },
    {
      "anonymous": false,
      "inputs": [
        {
          "indexed": true,
          "internalType": "address",
          "name": "admin",
          "type": "address"
        }
      ],
      "name": "BuybackAdminAdded",
      "type": "event"
    },
    {
      "anonymous": false,
      "inputs": [
        {
          "indexed": true,
          "internalType": "address",
          "name": "admin",
          "type": "address"
        }
      ],
      "name": "BuybackAdminRemoved",
      "type": "event"
    },
    {
      "anonymous": false,
      "inputs": [
        {
          "indexed": false,
          "internalType": "uint256",
          "name": "buybackAmount",
          "type": "uint256"
        },
        {
          "indexed": false,
          "internalType": "uint256",
          "name": "burnAmount",
          "type": "uint256"
        },
        {
          "indexed": true,
          "internalType": "address",
          "name": "targetToken",
          "type": "address"
        },
        {
          "indexed": false,
          "internalType": "uint256",
          "name": "boughtAmount",
          "type": "uint256"
        },
        {
          "indexed": false,
          "internalType": "bool",
          "name": "isBuy",
          "type": "bool"
        },
        {
          "indexed": false,
          "internalType": "uint256",
          "name": "timestamp",
          "type": "uint256"
        }
      ],
      "name": "BuybackAndBurn",
      "type": "event"
    },
    {
      "anonymous": false,
      "inputs": [
        {
          "indexed": false,
          "internalType": "uint24",
          "name": "oldFee",
          "type": "uint24"
        },
        {
          "indexed": false,
          "internalType": "uint24",
          "name": "newFee",
          "type": "uint24"
        }
      ],
      "name": "DefaultPoolFeeUpdated",
      "type": "event"
    },
    {
      "anonymous": false,
      "inputs": [
        {
          "indexed": true,
          "internalType": "address",
          "name": "oldRecipient",
          "type": "address"
        },
        {
          "indexed": true,
          "internalType": "address",
          "name": "newRecipient",
          "type": "address"
        }
      ],
      "name": "FeeRecipientUpdated",
      "type": "event"
    },
    {
      "anonymous": false,
      "inputs": [
        {
          "indexed": false,
          "internalType": "uint64",
          "name": "version",
          "type": "uint64"
        }
      ],
      "name": "Initialized",
      "type": "event"
    },
    {
      "anonymous": false,
      "inputs": [
        {
          "indexed": true,
          "internalType": "address",
          "name": "previousOwner",
          "type": "address"
        },
        {
          "indexed": true,
          "internalType": "address",
          "name": "newOwner",
          "type": "address"
        }
      ],
      "name": "OwnershipTransferred",
      "type": "event"
    },
    {
      "anonymous": false,
      "inputs": [
        {
          "indexed": true,
          "internalType": "address",
          "name": "admin",
          "type": "address"
        }
      ],
      "name": "ProxyAdminAdded",
      "type": "event"
    },
    {
      "anonymous": false,
      "inputs": [
        {
          "indexed": true,
          "internalType": "address",
          "name": "admin",
          "type": "address"
        }
      ],
      "name": "ProxyAdminRemoved",
      "type": "event"
    },
    {
      "anonymous": false,
      "inputs": [
        {
          "indexed": false,
          "internalType": "uint256",
          "name": "protocolFeeBps",
          "type": "uint256"
        },
        {
          "indexed": false,
          "internalType": "uint256",
          "name": "transactionFeeBps",
          "type": "uint256"
        }
      ],
      "name": "SellFeesUpdated",
      "type": "event"
    },
    {
      "anonymous": false,
      "inputs": [
        {
          "indexed": true,
          "internalType": "address",
          "name": "user",
          "type": "address"
        },
        {
          "indexed": true,
          "internalType": "address",
          "name": "token",
          "type": "address"
        },
        {
          "indexed": false,
          "internalType": "bool",
          "name": "isBuy",
          "type": "bool"
        },
        {
          "indexed": false,
          "internalType": "uint256",
          "name": "tradeAmount",
          "type": "uint256"
        },
        {
          "indexed": false,
          "internalType": "uint256",
          "name": "amountIn",
          "type": "uint256"
        },
        {
          "indexed": false,
          "internalType": "uint256",
          "name": "amountOut",
          "type": "uint256"
        },
        {
          "indexed": false,
          "internalType": "uint256",
          "name": "amountOutMin",
          "type": "uint256"
        },
        {
          "indexed": false,
          "internalType": "uint256",
          "name": "protocolFee",
          "type": "uint256"
        },
        {
          "indexed": false,
          "internalType": "uint256",
          "name": "transactionFee",
          "type": "uint256"
        },
        {
          "indexed": false,
          "internalType": "uint256",
          "name": "timestamp",
          "type": "uint256"
        }
      ],
      "name": "TradeVolume",
      "type": "event"
    },
    {
      "anonymous": false,
      "inputs": [
        {
          "indexed": true,
          "internalType": "address",
          "name": "implementation",
          "type": "address"
        }
      ],
      "name": "Upgraded",
      "type": "event"
    },
    {
      "inputs": [],
      "name": "BPS_DENOMINATOR",
      "outputs": [
        {
          "internalType": "uint256",
          "name": "",
          "type": "uint256"
        }
      ],
      "stateMutability": "view",
      "type": "function"
    },
    {
      "inputs": [],
      "name": "MAX_FEE_BPS",
      "outputs": [
        {
          "internalType": "uint256",
          "name": "",
          "type": "uint256"
        }
      ],
      "stateMutability": "view",
      "type": "function"
    },
    {
      "inputs": [],
      "name": "UPGRADE_INTERFACE_VERSION",
      "outputs": [
        {
          "internalType": "string",
          "name": "",
          "type": "string"
        }
      ],
      "stateMutability": "view",
      "type": "function"
    },
    {
      "inputs": [
        {
          "internalType": "address",
          "name": "",
          "type": "address"
        }
      ],
      "name": "accumulatedBuyTransactionFees",
      "outputs": [
        {
          "internalType": "uint256",
          "name": "",
          "type": "uint256"
        }
      ],
      "stateMutability": "view",
      "type": "function"
    },
    {
      "inputs": [
        {
          "internalType": "address",
          "name": "",
          "type": "address"
        }
      ],
      "name": "accumulatedSellTransactionFees",
      "outputs": [
        {
          "internalType": "uint256",
          "name": "",
          "type": "uint256"
        }
      ],
      "stateMutability": "view",
      "type": "function"
    },
    {
      "inputs": [
        {
          "internalType": "address",
          "name": "admin",
          "type": "address"
        }
      ],
      "name": "addBuybackAdmin",
      "outputs": [],
      "stateMutability": "nonpayable",
      "type": "function"
    },
    {
      "inputs": [
        {
          "internalType": "address",
          "name": "admin",
          "type": "address"
        }
      ],
      "name": "addProxyAdmin",
      "outputs": [],
      "stateMutability": "nonpayable",
      "type": "function"
    },
    {
      "inputs": [],
      "name": "buyProtocolFeeBps",
      "outputs": [
        {
          "internalType": "uint256",
          "name": "",
          "type": "uint256"
        }
      ],
      "stateMutability": "view",
      "type": "function"
    },
    {
      "inputs": [],
      "name": "buyTransactionFeeBps",
      "outputs": [
        {
          "internalType": "uint256",
          "name": "",
          "type": "uint256"
        }
      ],
      "stateMutability": "view",
      "type": "function"
    },
    {
      "inputs": [
        {
          "internalType": "address",
          "name": "",
          "type": "address"
        }
      ],
      "name": "buybackAdmins",
      "outputs": [
        {
          "internalType": "bool",
          "name": "",
          "type": "bool"
        }
      ],
      "stateMutability": "view",
      "type": "function"
    },
    {
      "inputs": [
        {
          "internalType": "uint256",
          "name": "buybackAmount",
          "type": "uint256"
        },
        {
          "internalType": "uint256",
          "name": "burnAmount",
          "type": "uint256"
        },
        {
          "internalType": "address",
          "name": "targetToken",
          "type": "address"
        },
        {
          "internalType": "uint256",
          "name": "minTargetAmount",
          "type": "uint256"
        },
        {
          "internalType": "bool",
          "name": "isBuy",
          "type": "bool"
        },
        {
          "internalType": "uint24",
          "name": "poolFee",
          "type": "uint24"
        }
      ],
      "name": "buybackAndBurn",
      "outputs": [
        {
          "internalType": "uint256",
          "name": "boughtAmount",
          "type": "uint256"
        }
      ],
      "stateMutability": "nonpayable",
      "type": "function"
    },
    {
      "inputs": [],
      "name": "defaultPoolFee",
      "outputs": [
        {
          "internalType": "uint24",
          "name": "",
          "type": "uint24"
        }
      ],
      "stateMutability": "view",
      "type": "function"
    },
    {
      "inputs": [
        {
          "internalType": "address",
          "name": "token",
          "type": "address"
        },
        {
          "internalType": "uint256",
          "name": "amount",
          "type": "uint256"
        }
      ],
      "name": "emergencyWithdraw",
      "outputs": [],
      "stateMutability": "nonpayable",
      "type": "function"
    },
    {
      "inputs": [],
      "name": "feeRecipient",
      "outputs": [
        {
          "internalType": "address",
          "name": "",
          "type": "address"
        }
      ],
      "stateMutability": "view",
      "type": "function"
    },
    {
      "inputs": [],
      "name": "fixedToken",
      "outputs": [
        {
          "internalType": "address",
          "name": "",
          "type": "address"
        }
      ],
      "stateMutability": "view",
      "type": "function"
    },
    {
      "inputs": [
        {
          "internalType": "address",
          "name": "token",
          "type": "address"
        }
      ],
      "name": "getAccumulatedTransactionFees",
      "outputs": [
        {
          "internalType": "uint256",
          "name": "buyFees",
          "type": "uint256"
        },
        {
          "internalType": "uint256",
          "name": "sellFees",
          "type": "uint256"
        },
        {
          "internalType": "uint256",
          "name": "totalFees",
          "type": "uint256"
        }
      ],
      "stateMutability": "view",
      "type": "function"
    },
    {
      "inputs": [
        {
          "internalType": "address",
          "name": "tokenIn",
          "type": "address"
        },
        {
          "internalType": "address",
          "name": "tokenOut",
          "type": "address"
        },
        {
          "internalType": "uint256",
          "name": "amountIn",
          "type": "uint256"
        },
        {
          "internalType": "uint24",
          "name": "poolFee",
          "type": "uint24"
        }
      ],
      "name": "getAmountOut",
      "outputs": [
        {
          "internalType": "uint256",
          "name": "amountOut",
          "type": "uint256"
        }
      ],
      "stateMutability": "nonpayable",
      "type": "function"
    },
    {
      "inputs": [
        {
          "internalType": "address",
          "name": "tokenIn",
          "type": "address"
        },
        {
          "internalType": "address",
          "name": "tokenOut",
          "type": "address"
        },
        {
          "internalType": "uint256",
          "name": "amountIn",
          "type": "uint256"
        },
        {
          "internalType": "uint24",
          "name": "poolFee",
          "type": "uint24"
        }
      ],
      "name": "getAmountOut2",
      "outputs": [
        {
          "internalType": "uint256",
          "name": "amountOut",
          "type": "uint256"
        }
      ],
      "stateMutability": "nonpayable",
      "type": "function"
    },
    {
      "inputs": [],
      "name": "getContractBalance",
      "outputs": [
        {
          "internalType": "uint256",
          "name": "balance",
          "type": "uint256"
        }
      ],
      "stateMutability": "view",
      "type": "function"
    },
    {
      "inputs": [
        {
          "internalType": "address",
          "name": "_fixedToken",
          "type": "address"
        },
        {
          "internalType": "address",
          "name": "_pancakeV3Factory",
          "type": "address"
        },
        {
          "internalType": "address",
          "name": "_pancakeV3Router",
          "type": "address"
        },
        {
          "internalType": "address",
          "name": "_pancakeV3Quoter",
          "type": "address"
        },
        {
          "internalType": "address",
          "name": "_feeRecipient",
          "type": "address"
        }
      ],
      "name": "initialize",
      "outputs": [],
      "stateMutability": "nonpayable",
      "type": "function"
    },
    {
      "inputs": [
        {
          "internalType": "address",
          "name": "account",
          "type": "address"
        }
      ],
      "name": "isBuybackAdmin",
      "outputs": [
        {
          "internalType": "bool",
          "name": "",
          "type": "bool"
        }
      ],
      "stateMutability": "view",
      "type": "function"
    },
    {
      "inputs": [
        {
          "internalType": "address",
          "name": "account",
          "type": "address"
        }
      ],
      "name": "isProxyAdmin",
      "outputs": [
        {
          "internalType": "bool",
          "name": "",
          "type": "bool"
        }
      ],
      "stateMutability": "view",
      "type": "function"
    },
    {
      "inputs": [],
      "name": "owner",
      "outputs": [
        {
          "internalType": "address",
          "name": "",
          "type": "address"
        }
      ],
      "stateMutability": "view",
      "type": "function"
    },
    {
      "inputs": [],
      "name": "pancakeV3Factory",
      "outputs": [
        {
          "internalType": "address",
          "name": "",
          "type": "address"
        }
      ],
      "stateMutability": "view",
      "type": "function"
    },
    {
      "inputs": [],
      "name": "pancakeV3Quoter",
      "outputs": [
        {
          "internalType": "address",
          "name": "",
          "type": "address"
        }
      ],
      "stateMutability": "view",
      "type": "function"
    },
    {
      "inputs": [],
      "name": "pancakeV3Router",
      "outputs": [
        {
          "internalType": "address",
          "name": "",
          "type": "address"
        }
      ],
      "stateMutability": "view",
      "type": "function"
    },
    {
      "inputs": [],
      "name": "proxiableUUID",
      "outputs": [
        {
          "internalType": "bytes32",
          "name": "",
          "type": "bytes32"
        }
      ],
      "stateMutability": "view",
      "type": "function"
    },
    {
      "inputs": [
        {
          "internalType": "address",
          "name": "",
          "type": "address"
        }
      ],
      "name": "proxyAdmins",
      "outputs": [
        {
          "internalType": "bool",
          "name": "",
          "type": "bool"
        }
      ],
      "stateMutability": "view",
      "type": "function"
    },
    {
      "inputs": [
        {
          "internalType": "address",
          "name": "admin",
          "type": "address"
        }
      ],
      "name": "removeBuybackAdmin",
      "outputs": [],
      "stateMutability": "nonpayable",
      "type": "function"
    },
    {
      "inputs": [
        {
          "internalType": "address",
          "name": "admin",
          "type": "address"
        }
      ],
      "name": "removeProxyAdmin",
      "outputs": [],
      "stateMutability": "nonpayable",
      "type": "function"
    },
    {
      "inputs": [],
      "name": "renounceOwnership",
      "outputs": [],
      "stateMutability": "nonpayable",
      "type": "function"
    },
    {
      "inputs": [
        {
          "internalType": "address",
          "name": "token",
          "type": "address"
        }
      ],
      "name": "resetAccumulatedFees",
      "outputs": [],
      "stateMutability": "nonpayable",
      "type": "function"
    },
    {
      "inputs": [],
      "name": "sellProtocolFeeBps",
      "outputs": [
        {
          "internalType": "uint256",
          "name": "",
          "type": "uint256"
        }
      ],
      "stateMutability": "view",
      "type": "function"
    },
    {
      "inputs": [],
      "name": "sellTransactionFeeBps",
      "outputs": [
        {
          "internalType": "uint256",
          "name": "",
          "type": "uint256"
        }
      ],
      "stateMutability": "view",
      "type": "function"
    },
    {
      "inputs": [
        {
          "internalType": "uint256",
          "name": "_protocolFeeBps",
          "type": "uint256"
        },
        {
          "internalType": "uint256",
          "name": "_transactionFeeBps",
          "type": "uint256"
        }
      ],
      "name": "setBuyFees",
      "outputs": [],
      "stateMutability": "nonpayable",
      "type": "function"
    },
    {
      "inputs": [
        {
          "internalType": "uint24",
          "name": "newPoolFee",
          "type": "uint24"
        }
      ],
      "name": "setDefaultPoolFee",
      "outputs": [],
      "stateMutability": "nonpayable",
      "type": "function"
    },
    {
      "inputs": [
        {
          "internalType": "address",
          "name": "newFeeRecipient",
          "type": "address"
        }
      ],
      "name": "setFeeRecipient",
      "outputs": [],
      "stateMutability": "nonpayable",
      "type": "function"
    },
    {
      "inputs": [
        {
          "internalType": "uint256",
          "name": "_protocolFeeBps",
          "type": "uint256"
        },
        {
          "internalType": "uint256",
          "name": "_transactionFeeBps",
          "type": "uint256"
        }
      ],
      "name": "setSellFees",
      "outputs": [],
      "stateMutability": "nonpayable",
      "type": "function"
    },
    {
      "inputs": [
        {
          "internalType": "address",
          "name": "memeToken",
          "type": "address"
        },
        {
          "internalType": "uint256",
          "name": "amountIn",
          "type": "uint256"
        },
        {
          "internalType": "uint256",
          "name": "amountOutMinimum",
          "type": "uint256"
        },
        {
          "internalType": "uint24",
          "name": "poolFee",
          "type": "uint24"
        }
      ],
      "name": "swapFixedTokenForMeme",
      "outputs": [
        {
          "internalType": "uint256",
          "name": "amountOut",
          "type": "uint256"
        }
      ],
      "stateMutability": "nonpayable",
      "type": "function"
    },
    {
      "inputs": [
        {
          "internalType": "address",
          "name": "memeToken",
          "type": "address"
        },
        {
          "internalType": "uint256",
          "name": "amountIn",
          "type": "uint256"
        },
        {
          "internalType": "uint256",
          "name": "amountOutMinimum",
          "type": "uint256"
        },
        {
          "internalType": "uint24",
          "name": "poolFee",
          "type": "uint24"
        }
      ],
      "name": "swapMemeForFixedToken",
      "outputs": [
        {
          "internalType": "uint256",
          "name": "amountOut",
          "type": "uint256"
        }
      ],
      "stateMutability": "nonpayable",
      "type": "function"
    },
    {
      "inputs": [
        {
          "internalType": "address",
          "name": "newOwner",
          "type": "address"
        }
      ],
      "name": "transferOwnership",
      "outputs": [],
      "stateMutability": "nonpayable",
      "type": "function"
    },
    {
      "inputs": [
        {
          "internalType": "address",
          "name": "newImplementation",
          "type": "address"
        },
        {
          "internalType": "bytes",
          "name": "data",
          "type": "bytes"
        }
      ],
      "name": "upgradeToAndCall",
      "outputs": [],
      "stateMutability": "payable",
      "type": "function"
    }
  ],
  "bytecode": "0x60a080604052346100ea57306080527ff0c57e16840df040f15088dc2f81fe391c3923bec73e23a9662efc9c229c6a005460ff8160401c166100d9576002600160401b03196001600160401b03821601610073575b60405161292090816100f0823960805181818161160b01526116df0152f35b6001600160401b0319166001600160401b039081177ff0c57e16840df040f15088dc2f81fe391c3923bec73e23a9662efc9c229c6a005581527fc7f505b2f371ae2175ee4913f4499e1f2633a7b5936321eed1cdaeb6115181d290602090a13880610054565b63f92ee8a960e01b60005260046000fd5b600080fdfe608080604052600436101561001357600080fd5b60003560e01c908163018d621814611f0e5750806306cf6d8e14611ef05780631459457a14611b965780631e6a907c146119d05780634100ddb9146119b257806341824eba14611953578063469048401461192a5780634f1ef2861461166257806352d1902d146115f857806356bc3d4c146115235780635785d8d01461146a57806358a79fbc1461139a5780636b8f4f51146113715780636f60a6dd1461134e5780636f9fb98a146112c5578063715018a61461125b578063866df527146101ed578063887acc861461105a5780638da5cb5b1461122557806395ccea67146111db57806396f1557c146111135780639fd8234e14611099578063a00ff3701461105a578063a39f5a0d14611031578063a6e8168714610fe9578063a99dc55414610fc0578063ad3cb1cc14610f44578063b1f6d22d14610f0a578063b2d8f20814610e89578063b7ba95a414610d4d578063c27745dd14610d24578063c291bd0414610b52578063cd69423314610a9b578063d47c7ec914610a61578063d55be8c614610a44578063dd811ac9146107c6578063dfb9e21f14610310578063e1a45218146102f3578063e74b981b1461027a578063ea13ec091461025c578063f2fde38b146102315763f47f2f1d146101ed57600080fd5b3461022c57602036600319011261022c576001600160a01b0361020e611f29565b16600052600c602052602060ff604060002054166040519015158152f35b600080fd5b3461022c57602036600319011261022c5761025a61024d611f29565b61025561274a565b6123e0565b005b3461022c57600036600319011261022c576020600754604051908152f35b3461022c57602036600319011261022c57610293611f29565b61029b61274a565b6001600160a01b03166102af81151561205f565b600480546001600160a01b0319811683179091556001600160a01b03167faaebcf1bfa00580e41d966056b48521fa9f202645c86d4ddf28113e617c1b1d3600080a3005b3461022c57600036600319011261022c5760206040516127108152f35b3461022c5760c036600319011261022c5760043560243561032f611f3f565b90608435908115159081830361022c5760a4359362ffffff85169485810361022c5733600052600d60205260ff604060002054161561078157610370612456565b6000805490966001600160a01b03848116979192169087821461073c5789159283158094610733575b156106db576103a8878c612145565b9282156106c75789600052600a6020526040600020545b8411610682576020602491604051928380926370a0823160e01b82523060048301525afa80156105cd57849160009161064d575b501061060857156105f9575b156105d95786600052600a60205261041d60406000209182546123d3565b90555b6104a3575b50506020947fe8bdf3946ee8ba27e8139aa2689d22561d127c71dca18548c8a5aa0dfc5e0623928260a09361048b575b604051928352878301528560408301526060820152426080820152a260016000805160206128ab83398151915255604051908152f35b61049e81600180871b0360005416612549565b610455565b600154600054604051630b4c774160e11b815294975091926001600160a01b0392831692909160209186911681806104e088878960048501612187565b03915afa9182156105cd5761050d89936105129660009161059e575b506001600160a01b031615156121ad565b6125b7565b926064358410610559576020947fe8bdf3946ee8ba27e8139aa2689d22561d127c71dca18548c8a5aa0dfc5e06239260a09261054e8787612549565b925092819650610425565b60405162461bcd60e51b815260206004820152601b60248201527f496e73756666696369656e74206275796261636b20616d6f756e7400000000006044820152606490fd5b6105c0915060203d6020116105c6575b6105b88183611fc1565b810190612168565b8b6104fc565b503d6105ae565b6040513d6000823e3d90fd5b86600052600b6020526105f260406000209182546123d3565b9055610420565b60095462ffffff1693506103ff565b60405162461bcd60e51b815260206004820152601d60248201527f496e73756666696369656e7420636f6e74726163742062616c616e63650000006044820152606490fd5b9150506020813d60201161067a575b8161066960209383611fc1565b8101031261022c578390518d6103f3565b3d915061065c565b60405162461bcd60e51b815260206004820152601d60248201527f496e73756666696369656e7420616363756d756c6174656420666565730000006044820152606490fd5b89600052600b6020526040600020546103bf565b60405162461bcd60e51b815260206004820152602a60248201527f4174206c65617374206f6e6520616d6f756e74206d75737420626520677265616044820152690746572207468616e20360b41b6064820152608490fd5b50861515610399565b60405162461bcd60e51b815260206004820152601a60248201527f43616e6e6f74206275796261636b20666978656420746f6b656e0000000000006044820152606490fd5b60405162461bcd60e51b815260206004820152601b60248201527f43616c6c6572206973206e6f74206275796261636b2061646d696e00000000006044820152606490fd5b3461022c5761084a6107d736612015565b6000546001600160a01b0385811691168181149592949391929062ffffff90869061081190899081610a30575b8115610a0c575b50612350565b16156109fd575b600154604051630b4c774160e11b81529760209289926001600160a01b03169183918291908a908a9060048501612187565b03915afa9485156105cd5761087560809660009889916109de57506001600160a01b031615156121ad565b8614610972576109219361088c62ffffff926124f0565b91505060018060a01b036003541694604051946108a886611f8f565b85526001600160a01b0390811660208601908152604080870193845294909316606086019081528886018a90529351636352813560e11b815285518216600482015292518116602484015290516044830152915162ffffff166064820152608090920151166084820152938492839190829060a4820190565b03925af180156105cd57602091600091610940575b505b604051908152f35b610962915060803d60801161096b575b61095a8183611fc1565b810190612391565b50505082610936565b503d610950565b6109949362ffffff9160018060a01b036003541694604051946108a886611f8f565b03925af19081156105cd576020916109b4916000916109bc575b5061252a565b915050610938565b6109d5915060803d60801161096b5761095a8183611fc1565b505050836109ae565b6109f7915060203d6020116105c6576105b88183611fc1565b896104fc565b60095462ffffff169450610818565b8a15915081610a1d575b508b61080b565b6001600160a01b0389161490508b610a16565b6001600160a01b0389168114159150610804565b3461022c57600036600319011261022c5760206040516113888152f35b3461022c57602036600319011261022c576001600160a01b03610a82611f29565b16600052600b6020526020604060002054604051908152f35b3461022c57602036600319011261022c57610ab4611f29565b610abc61274a565b6001600160a01b03166000818152600c602052604090205460ff1615610b195780600052600c602052604060002060ff1981541690557fe2c6046b59d93e1eca6074c0dd9a0cc8fa3f999894c19561233ee07f033a99b6600080a2005b60405162461bcd60e51b81526020600482015260116024820152702737ba103090383937bc3c9030b236b4b760791b6044820152606490fd5b3461022c57610b6036611f55565b9091610b6a612456565b60005491936001600160a01b038082169362ffffff918791610b8f91168614156120a3565b610b9a8415156120f9565b1615610d15575b610bad82303386612492565b600154600054604051630b4c774160e11b81526001600160a01b0391821697909290916020918491168180610be7868d8a60048501612187565b03915afa80156105cd57602097610c1e9461050d8793610c1996600091610cf857506001600160a01b031615156121ad565b61252a565b94610c2e818794939410156121ef565b84600052600b87526040600020610c46848254612145565b905581610cd5575b600054610c6790879033906001600160a01b031661257b565b604051936000855286888601526040850152856060850152608084015260a083015260c08201524260e08201527f2967b28bcb5d49b9767c512efcdd8cc5194ec202f3b8409bec50293ebe08e37f6101003392a360016000805160206128ab83398151915255604051908152f35b600054600454610cf39184916001600160a01b03908116911661257b565b610c4e565b610d0f91508c3d8e116105c6576105b88183611fc1565b8c6104fc565b60095462ffffff169450610ba1565b3461022c57600036600319011261022c576002546040516001600160a01b039091168152602090f35b3461022c57610d5b36612015565b6000549092906001600160a01b038581169162ffffff918691610d929116848114908180610e75575b8215610e51575b5050612350565b610d9d8515156120f9565b1615610e42575b602084610dd79495968460018060a01b03600154169160405197889485938493630b4c774160e11b855260048501612187565b03915afa80156105cd57600095608095610e0a62ffffff93610921978a91610e2357506001600160a01b031615156121ad565b60018060a01b036003541694604051946108a886611f8f565b610e3c915060203d6020116105c6576105b88183611fc1565b8a6104fc565b60095462ffffff169350610da4565b15915081610e62575b508980610d8b565b6001600160a01b03871614905089610e5a565b6001600160a01b0388168214159250610d84565b3461022c577f480af1f773972b1df72af32ec463e0fdeb1b49f1ca37d07982f677919d5fdd0c6040610eba36611fff565b610ec261274a565b610ed061138883111561227f565b610ede6113888211156122c3565b610ef5611388610eee8385612145565b111561230f565b816005558060065582519182526020820152a1005b3461022c57602036600319011261022c576001600160a01b03610f2b611f29565b16600052600a6020526020604060002054604051908152f35b3461022c57600036600319011261022c576040805190610f648183611fc1565b60058252640352e302e360dc1b6020830152805180926020825280519081602084015260005b828110610fa95750506000828201840152601f01601f19168101030190f35b602082820181015187830187015286945001610f8a565b3461022c57600036600319011261022c576001546040516001600160a01b039091168152602090f35b3461022c57602036600319011261022c57611002611f29565b61100a61274a565b6001600160a01b03166000908152600a60209081526040808320839055600b909152812055005b3461022c57600036600319011261022c576000546040516001600160a01b039091168152602090f35b3461022c57602036600319011261022c576001600160a01b0361107b611f29565b16600052600d602052602060ff604060002054166040519015158152f35b3461022c577f2c7448b63380296b372453c5287509524b5b645dc6a93ffe09e0af53e6b8935b60406110ca36611fff565b6110d261274a565b6110e061138883111561227f565b6110ee6113888211156122c3565b6110fe611388610eee8385612145565b816007558060085582519182526020820152a1005b3461022c57602036600319011261022c5761112c611f29565b61113461274a565b6001600160a01b031661114881151561223b565b80600052600c60205260ff6040600020541661119e5780600052600c6020526040600020600160ff198254161790557f9cb93cdfef7922322577ac5af4bf3abcd4edf22d02e8a075228101ed6180bf70600080a2005b60405162461bcd60e51b815260206004820152601560248201527420b63932b0b23c903090383937bc3c9030b236b4b760591b6044820152606490fd5b3461022c57604036600319011261022c5761025a6111f7611f29565b6111ff61274a565b60008051602061286b83398151915254602435916001600160a01b03918216911661257b565b3461022c57600036600319011261022c5760008051602061286b833981519152546040516001600160a01b039091168152602090f35b3461022c57600036600319011261022c5761127461274a565b60008051602061286b83398151915280546001600160a01b031981169091556000906001600160a01b03167f8be0079c531659141344cd1fd0a4f28419497f9722a3daafe3b4186f6b6457e08280a3005b3461022c57600036600319011261022c576000546040516370a0823160e01b815230600482015290602090829060249082906001600160a01b03165afa80156105cd5760009061131b575b602090604051908152f35b506020813d602011611346575b8161133560209383611fc1565b8101031261022c5760209051611310565b3d9150611328565b3461022c57600036600319011261022c57602062ffffff60095416604051908152f35b3461022c57600036600319011261022c576003546040516001600160a01b039091168152602090f35b3461022c57602036600319011261022c576113b3611f29565b6113bb61274a565b6001600160a01b03166113cf81151561223b565b80600052600d60205260ff604060002054166114255780600052600d6020526040600020600160ff198254161790557fea3894f0efe6d809650418f56427a5416efb741d181944d5b9e21bc82037b2ee600080a2005b60405162461bcd60e51b815260206004820152601760248201527f416c72656164792061206275796261636b2061646d696e0000000000000000006044820152606490fd5b3461022c57602036600319011261022c57611483611f29565b61148b61274a565b6001600160a01b03166000818152600d602052604090205460ff16156114e85780600052600d602052604060002060ff1981541690557f0d04e50a30de1a717fce675e9a955a26697a081348beecad8631bcd237e42c51600080a2005b60405162461bcd60e51b81526020600482015260136024820152722737ba103090313abcb130b1b59030b236b4b760691b6044820152606490fd5b3461022c57602036600319011261022c5760043562ffffff811680910361022c5761154c61274a565b6101f4811480156115ed575b80156115e2575b156115aa5760407fb2cc11d233df48242e136b951b4ae5a19f60a094b9fe6a0e877a12d8d008c6b791600954908062ffffff1983161760095562ffffff8351921682526020820152a1005b60405162461bcd60e51b815260206004820152601060248201526f496e76616c696420706f6f6c2066656560801b6044820152606490fd5b50612710811461155f565b50610bb88114611558565b3461022c57600036600319011261022c577f00000000000000000000000000000000000000000000000000000000000000006001600160a01b0316300361165157602060405160008051602061288b8339815191528152f35b63703e46dd60e11b60005260046000fd5b604036600319011261022c57611676611f29565b6024359067ffffffffffffffff821161022c573660238301121561022c578160040135906116a382611fe3565b916116b16040519384611fc1565b8083526020830193366024838301011161022c57816000926024602093018737840101526001600160a01b037f000000000000000000000000000000000000000000000000000000000000000016308114908115611907575b506116515760008051602061286b833981519152546001600160a01b0316331480156118ef575b1561189f576040516352d1902d60e01b81526001600160a01b0382169390602081600481885afa6000918161186b575b5061177b5784634c9c8ce360e01b60005260045260246000fd5b8060008051602061288b8339815191528692036118575750823b156118435760008051602061288b83398151915280546001600160a01b031916821790557fbc7cd75a20ee27fd9adebab32041f755214dbc6bffa90cc0225b39da2e5c2d3b600080a2825115611828576000809161025a945190845af43d15611820573d9161180383611fe3565b926118116040519485611fc1565b83523d6000602085013e612809565b606091612809565b5050503461183257005b63b398979f60e01b60005260046000fd5b634c9c8ce360e01b60005260045260246000fd5b632a87526960e21b60005260045260246000fd5b9091506020813d602011611897575b8161188760209383611fc1565b8101031261022c57519086611761565b3d915061187a565b60405162461bcd60e51b815260206004820152602260248201527f43616c6c6572206973206e6f74206f776e6572206f722070726f78792061646d60448201526134b760f11b6064820152608490fd5b5033600052600c60205260ff60406000205416611731565b60008051602061288b833981519152546001600160a01b0316141590508461170a565b3461022c57600036600319011261022c576004546040516001600160a01b039091168152602090f35b3461022c57602036600319011261022c5760606001600160a01b03611976611f29565b1680600052600a60205260406000205490600052600b60205260406000205461199f8183612145565b9060405192835260208301526040820152f35b3461022c57600036600319011261022c576020600654604051908152f35b3461022c576119de36611f55565b90916119e8612456565b6000546001600160a01b03858116939116908262ffffff82611a0c878614156120a3565b611a178315156120f9565b1615611b87575b611a2c919230903390612492565b611a35826124f0565b96909285600052600a6020526040600020611a51858254612145565b905582611b64575b600154600054604051630b4c774160e11b8152996001600160a01b0391821694909290916020918c91168180611a9488878b60048501612187565b03915afa9384156105cd5761050d611ac19560209c600091611b4757506001600160a01b031615156121ad565b94611ace818710156121ef565b611ad986338761257b565b604051936001855280888601526040850152856060850152608084015260a083015260c08201524260e08201527f2967b28bcb5d49b9767c512efcdd8cc5194ec202f3b8409bec50293ebe08e37f6101003392a360016000805160206128ab83398151915255604051908152f35b611b5e91508d3d8f116105c6576105b88183611fc1565b8d6104fc565b600054600454611b829185916001600160a01b03908116911661257b565b611a59565b60095462ffffff169150611a1e565b3461022c5760a036600319011261022c57611baf611f29565b6024356001600160a01b0381169081900361022c57611bcc611f3f565b6064356001600160a01b038116919082900361022c576084356001600160a01b038116939084900361022c576000805160206128cb833981519152549460ff8660401c16159567ffffffffffffffff811680159081611ee8575b6001149081611ede575b159081611ed5575b50611ec45767ffffffffffffffff1981166001176000805160206128cb8339815191525586611e97575b506001600160a01b0316918215611e5c578115611e25576001600160a01b0316918215611def578315611db957611c9a85151561205f565b611ca2612780565b611caa612780565b611cb3336123e0565b611cbb612780565b611cc3612780565b60016000805160206128ab833981519152556001600160601b0360a01b60005416176000556001600160601b0360a01b60015416176001556001600160601b0360a01b60025416176002556001600160601b0360a01b60035416176003556001600160601b0360a01b600454161760045561271062ffffff19600954161760095560c86005556103e860065560c86007556103e8600855611d6057005b68ff0000000000000000196000805160206128cb83398151915254166000805160206128cb833981519152557fc7f505b2f371ae2175ee4913f4499e1f2633a7b5936321eed1cdaeb6115181d2602060405160018152a1005b60405162461bcd60e51b815260206004820152600e60248201526d24b73b30b634b21038bab7ba32b960911b6044820152606490fd5b60405162461bcd60e51b815260206004820152600e60248201526d24b73b30b634b2103937baba32b960911b6044820152606490fd5b60405162461bcd60e51b815260206004820152600f60248201526e496e76616c696420666163746f727960881b6044820152606490fd5b60405162461bcd60e51b815260206004820152601360248201527224b73b30b634b2103334bc32b2103a37b5b2b760691b6044820152606490fd5b68ffffffffffffffffff191668010000000000000001176000805160206128cb8339815191525586611c62565b63f92ee8a960e01b60005260046000fd5b90501588611c38565b303b159150611c30565b889150611c26565b3461022c57600036600319011261022c576020600854604051908152f35b3461022c57600036600319011261022c576020906005548152f35b600435906001600160a01b038216820361022c57565b604435906001600160a01b038216820361022c57565b608090600319011261022c576004356001600160a01b038116810361022c5790602435906044359060643562ffffff8116810361022c5790565b60a0810190811067ffffffffffffffff821117611fab57604052565b634e487b7160e01b600052604160045260246000fd5b90601f8019910116810190811067ffffffffffffffff821117611fab57604052565b67ffffffffffffffff8111611fab57601f01601f191660200190565b604090600319011261022c576004359060243590565b608090600319011261022c576004356001600160a01b038116810361022c57906024356001600160a01b038116810361022c57906044359060643562ffffff8116810361022c5790565b1561206657565b60405162461bcd60e51b8152602060048201526015602482015274125b9d985b1a5908199959481c9958da5c1a595b9d605a1b6044820152606490fd5b156120aa57565b60405162461bcd60e51b815260206004820152602160248201527f43616e6e6f74207377617020666978656420746f6b656e20746f20697473656c6044820152603360f91b6064820152608490fd5b1561210057565b60405162461bcd60e51b815260206004820152601d60248201527f416d6f756e74206d7573742062652067726561746572207468616e20300000006044820152606490fd5b9190820180921161215257565b634e487b7160e01b600052601160045260246000fd5b9081602091031261022c57516001600160a01b038116810361022c5790565b6001600160a01b0391821681529116602082015262ffffff909116604082015260600190565b156121b457565b60405162461bcd60e51b8152602060048201526013602482015272141bdbdb08191bd95cc81b9bdd08195e1a5cdd606a1b6044820152606490fd5b156121f657565b60405162461bcd60e51b815260206004820152601a60248201527f496e73756666696369656e74206f757470757420616d6f756e740000000000006044820152606490fd5b1561224257565b60405162461bcd60e51b8152602060048201526015602482015274496e76616c69642061646d696e206164647265737360581b6044820152606490fd5b1561228657565b60405162461bcd60e51b81526020600482015260156024820152740a0e4dee8dec6ded840cccaca40e8dede40d0d2ced605b1b6044820152606490fd5b156122ca57565b60405162461bcd60e51b815260206004820152601860248201527f5472616e73616374696f6e2066656520746f6f206869676800000000000000006044820152606490fd5b1561231657565b60405162461bcd60e51b81526020600482015260126024820152710a8dee8c2d840cccaca40e8dede40d0d2ced60731b6044820152606490fd5b1561235757565b60405162461bcd60e51b815260206004820152601260248201527124b73b30b634b2103a37b5b2b7103830b4b960711b6044820152606490fd5b919082608091031261022c57815160208301519092906001600160a01b038116810361022c5791604082015163ffffffff8116810361022c5760609092015190565b9190820391821161215257565b6001600160a01b031680156124405760008051602061286b83398151915280546001600160a01b0319811683179091556001600160a01b03167f8be0079c531659141344cd1fd0a4f28419497f9722a3daafe3b4186f6b6457e0600080a3565b631e4fbdf760e01b600052600060045260246000fd5b60026000805160206128ab83398151915254146124815760026000805160206128ab83398151915255565b633ee5aeb560e01b60005260046000fd5b6040516323b872dd60e01b60208201526001600160a01b0392831660248201529290911660448301526064808301939093529181526124db916124d6608483611fc1565b6127ae565b565b8181029291811591840414171561215257565b61251991612527600554926125226127108061250f60065497856124dd565b04968796846124dd565b049485926123d3565b6123d3565b90565b61251991612527600754926125226127108061250f60085497856124dd565b906124db916040519163a9059cbb60e01b602084015261dead60248401526044830152604482526124d6606483611fc1565b60405163a9059cbb60e01b60208201526001600160a01b039290921660248301526044808301939093529181526124db916124d6606483611fc1565b60025460405163095ea7b360e01b81526001600160a01b039182166004820152602481018590529116906020816044816000865af180156105cd57612712575b5061012c420192834211612152576040519061010082019082821067ffffffffffffffff831117611fab5760409182529282526001600160a01b03938416602083810191825262ffffff97881684840190815230606086019081526080860198895260a08601968752600060c0870181815260e08801828152600254975163414bf38960e01b815298518b1660048a015295518a1660248901529251909a166044870152518716606486015296516084850152935160a4840152945160c48301529351831660e482015293909284926101049284929091165af19081156105cd576000916126e3575090565b90506020813d60201161270a575b816126fe60209383611fc1565b8101031261022c575190565b3d91506126f1565b6020813d602011612742575b8161272b60209383611fc1565b8101031261022c575180151581146125f757600080fd5b3d915061271e565b60008051602061286b833981519152546001600160a01b0316330361276b57565b63118cdaa760e01b6000523360045260246000fd5b60ff6000805160206128cb8339815191525460401c161561279d57565b631afcd79f60e31b60005260046000fd5b906000602091828151910182855af1156105cd576000513d61280057506001600160a01b0381163b155b6127df5750565b635274afe760e01b60009081526001600160a01b0391909116600452602490fd5b600114156127d8565b9061282f575080511561281e57805190602001fd5b63d6bda27560e01b60005260046000fd5b81511580612861575b612840575090565b639996b31560e01b60009081526001600160a01b0391909116600452602490fd5b50803b1561283856fe9016d09d72d40fdae2fd8ceac6b6234c7706214fd39c1cd1e609a0528c199300360894a13ba1a3210667c828492db98dca3e2076cc3735a920a3ca505d382bbc9b779b17422d0df92223018b32b4d1fa46e071723d6817e2486d003becc55f00f0c57e16840df040f15088dc2f81fe391c3923bec73e23a9662efc9c229c6a00a264697066735822122022a768c3acb9f954d877bcc701b2769298490fafcadd5915474069ef1b623aae64736f6c634300081b0033",
  "linkReferences": {},
  "deployedLinkReferences": {}
}